:020000040000FA
:04000000CDEF3FF011
:107F9A000001D0EF3FF0000E936E010E816E1A0EB3
:107FAA00026E5E0E016E6E0EE82EFED7012EFCD713
:107FBA00022EFAD700D08A50D8A4E6EF3FF0E8EFB5
:107FCA003FF0ECEF3FF0010E816ED4EF3FF08ABE36
:107FDA00F1EF3FF0F3EF3FF0F9EF3FF08A508A24D8
:107FEA008A10816ED4EF3FF08A508A24816ED4EFD2
:067FFA003FF000EF00F073
:020000040020DA
:08000000FFFFFFFFFFFFFFFF00
:020000040030CA
:0E000000FF071F1FFF8385FF0FC00FE00F409B
:00000001FF
