:020000040000FA
:040000006DEF3FF071
:107EDA00000EF86E000172EF3FF0000E936E000E76
:107EEA00816E000E066E000E056E000E026E010E09
:107EFA00016E94EC3FF0054A062A06BE8EEF3FF06B
:107F0A00065009E10A0E055CD8A08EEF3FF090EF0B
:107F1A003FF07AEF3FF076EF3FF000EF00F0C1EF6D
:107F2A003FF0FE0E816EF7EF3FF0B00E816EF7EF75
:107F3A003FF0ED0E816EF7EF3FF0F90E816EF7EF2D
:107F4A003FF0B30E816EF7EF3FF0DB0E816EF7EF75
:107F5A003FF09F0E816EF7EF3FF0F00E816EF7EF64
:107F6A003FF08168F7EF3FF0F30E816EF7EF3FF0D5
:107F7A00000E816EF7EF3FF001C003F002C004F07B
:107F8A000450000AD8B4CCEF3FF0BDEF3FF00350E5
:107F9A00000AD8B496EF3FF0010AD8B49AEF3FF03E
:107FAA00030AD8B49EEF3FF0010AD8B4A2EF3FF01B
:107FBA00070AD8B4A6EF3FF0010AD8B4AAEF3FF0F7
:107FCA00030AD8B4AEEF3FF0010AD8B4B2EF3FF0DB
:107FDA000F0AD8B4B6EF3FF0010AD8B4B9EF3FF0B0
:107FEA00BDEF3FF0070E036E7D0EE82EFED7032E7F
:067FFA00FCD700F01200AC
:020000040020DA
:08000000FFFFFFFFFFFFFFFF00
:020000040030CA
:0E000000FF071F1FFF8385FF0FC00FE00F409B
:00000001FF
