:020000040000FA
:04000000C2EF3FF01C
:107F84000001C5EF3FF0939293949582819281947E
:107F9400E4EF3FF08AA2D1EF3FF0D5EF3FF0016A62
:107FA400012AD6EF3FF0016A014681500118FD0B0A
:107FB4000118816E410E016EEE0EE82EFED7012EE1
:107FC400FCD700D083B2E9EF3FF0EBEF3FF0CCEF0A
:107FD4003FF08AA4F0EF3FF0F4EF3FF0016A012A8A
:107FE400F5EF3FF0016A0146014681500118FB0B91
:0C7FF4000118816EDCEF3FF000EF00F0A0
:020000040020DA
:08000000FFFFFFFFFFFFFFFF00
:020000040030CA
:0E000000FF071F1FFF8385FF0FC00FE00F409B
:00000001FF
